{
  "contractName": "Tickets",
  "abi": [
    {
      "inputs": [],
      "stateMutability": "nonpayable",
      "type": "constructor"
    },
    {
      "anonymous": false,
      "inputs": [
        {
          "indexed": true,
          "internalType": "address",
          "name": "ownerticket",
          "type": "address"
        },
        {
          "indexed": true,
          "internalType": "uint256",
          "name": "ticketId",
          "type": "uint256"
        }
      ],
      "name": "LotteryItemCreated",
      "type": "event"
    },
    {
      "anonymous": false,
      "inputs": [
        {
          "indexed": true,
          "internalType": "address",
          "name": "previousOwner",
          "type": "address"
        },
        {
          "indexed": true,
          "internalType": "address",
          "name": "newOwner",
          "type": "address"
        }
      ],
      "name": "OwnershipTransferred",
      "type": "event"
    },
    {
      "inputs": [],
      "name": "Delay",
      "outputs": [
        {
          "internalType": "uint256",
          "name": "",
          "type": "uint256"
        }
      ],
      "stateMutability": "view",
      "type": "function",
      "constant": true
    },
    {
      "inputs": [
        {
          "internalType": "uint256",
          "name": "",
          "type": "uint256"
        }
      ],
      "name": "MAP",
      "outputs": [
        {
          "internalType": "address",
          "name": "",
          "type": "address"
        }
      ],
      "stateMutability": "view",
      "type": "function",
      "constant": true
    },
    {
      "inputs": [
        {
          "internalType": "uint256",
          "name": "",
          "type": "uint256"
        }
      ],
      "name": "idLotteryItem",
      "outputs": [
        {
          "internalType": "address payable",
          "name": "ownerticket",
          "type": "address"
        },
        {
          "internalType": "uint256",
          "name": "ticketId",
          "type": "uint256"
        }
      ],
      "stateMutability": "view",
      "type": "function",
      "constant": true
    },
    {
      "inputs": [],
      "name": "owner",
      "outputs": [
        {
          "internalType": "address",
          "name": "",
          "type": "address"
        }
      ],
      "stateMutability": "view",
      "type": "function",
      "constant": true
    },
    {
      "inputs": [],
      "name": "randomResult",
      "outputs": [
        {
          "internalType": "uint256",
          "name": "",
          "type": "uint256"
        }
      ],
      "stateMutability": "view",
      "type": "function",
      "constant": true
    },
    {
      "inputs": [
        {
          "internalType": "bytes32",
          "name": "requestId",
          "type": "bytes32"
        },
        {
          "internalType": "uint256",
          "name": "randomness",
          "type": "uint256"
        }
      ],
      "name": "rawFulfillRandomness",
      "outputs": [],
      "stateMutability": "nonpayable",
      "type": "function"
    },
    {
      "inputs": [],
      "name": "renounceOwnership",
      "outputs": [],
      "stateMutability": "nonpayable",
      "type": "function"
    },
    {
      "inputs": [],
      "name": "tokenERC20",
      "outputs": [
        {
          "internalType": "address",
          "name": "",
          "type": "address"
        }
      ],
      "stateMutability": "view",
      "type": "function",
      "constant": true
    },
    {
      "inputs": [
        {
          "internalType": "address",
          "name": "newOwner",
          "type": "address"
        }
      ],
      "name": "transferOwnership",
      "outputs": [],
      "stateMutability": "nonpayable",
      "type": "function"
    },
    {
      "inputs": [
        {
          "internalType": "address",
          "name": "_token",
          "type": "address"
        }
      ],
      "name": "SetTokenAddress",
      "outputs": [],
      "stateMutability": "nonpayable",
      "type": "function"
    },
    {
      "inputs": [
        {
          "internalType": "uint256",
          "name": "ticketId",
          "type": "uint256"
        }
      ],
      "name": "BuyTicketNumber",
      "outputs": [],
      "stateMutability": "nonpayable",
      "type": "function"
    },
    {
      "inputs": [],
      "name": "Claim",
      "outputs": [],
      "stateMutability": "payable",
      "type": "function",
      "payable": true
    },
    {
      "inputs": [],
      "name": "winner",
      "outputs": [
        {
          "internalType": "address",
          "name": "",
          "type": "address"
        }
      ],
      "stateMutability": "view",
      "type": "function",
      "constant": true
    }
  ],
  "bytecode": "0x60c0604052606360075534801561001557600080fd5b5073dd3782915140c8f3b190b5d67eac6dc5760c46e973a36085f69e2889c224210f603d836748e7dc00888173ffffffffffffffffffffffffffffffffffffffff1660a08173ffffffffffffffffffffffffffffffffffffffff16815250508073ffffffffffffffffffffffffffffffffffffffff1660808173ffffffffffffffffffffffffffffffffffffffff168152505050506100c66100bb61010c60201b60201c565b61011460201b60201c565b60016002819055507f6c3699283bda56ad74f6b855546325b68d482e983852a7a82979cc4807b641f460001b60038190555067016345785d8a00006004819055506101da565b600033905090565b6000600160009054906101000a900473ffffffffffffffffffffffffffffffffffffffff16905081600160006101000a81548173ffffffffffffffffffffffffffffffffffffffff021916908373ffffffffffffffffffffffffffffffffffffffff1602179055508173ffffffffffffffffffffffffffffffffffffffff168173ffffffffffffffffffffffffffffffffffffffff167f8be0079c531659141344cd1fd0a4f28419497f9722a3daafe3b4186f6b6457e060405160405180910390a35050565b60805160a051611bdd61020d600039600081816109a80152610e93015260008181610bd60152610e570152611bdd6000f3fe6080604052600436106100c25760003560e01c8063715018a61161007f5780639d143e8e116100595780639d143e8e14610222578063ac07baf11461024d578063dfbf53ae1461028a578063f2fde38b146102b5576100c2565b8063715018a6146101b75780638da5cb5b146101ce57806394985ddd146101f9576100c2565b80631117defe146100c75780632b03c739146100f05780633158952e1461012e57806333a7e7391461013857806342619f661461016157806357d96db21461018c575b600080fd5b3480156100d357600080fd5b506100ee60048036038101906100e9919061104d565b6102de565b005b3480156100fc57600080fd5b506101176004803603810190610112919061104d565b6105c7565b6040516101259291906110ca565b60405180910390f35b61013661060b565b005b34801561014457600080fd5b5061015f600480360381019061015a9190611131565b610828565b005b34801561016d57600080fd5b506101766108e8565b604051610183919061115e565b60405180910390f35b34801561019857600080fd5b506101a16108ee565b6040516101ae919061115e565b60405180910390f35b3480156101c357600080fd5b506101cc6108f4565b005b3480156101da57600080fd5b506101e361097c565b6040516101f09190611188565b60405180910390f35b34801561020557600080fd5b50610220600480360381019061021b91906111d9565b6109a6565b005b34801561022e57600080fd5b50610237610a42565b6040516102449190611188565b60405180910390f35b34801561025957600080fd5b50610274600480360381019061026f919061104d565b610a68565b6040516102819190611188565b60405180910390f35b34801561029657600080fd5b5061029f610a9b565b6040516102ac9190611188565b60405180910390f35b3480156102c157600080fd5b506102dc60048036038101906102d79190611131565b610ad8565b005b6002805403610322576040517f08c379a000000000000000000000000000000000000000000000000000000000815260040161031990611276565b60405180910390fd5b60028081905550600a81111561036d576040517f08c379a0000000000000000000000000000000000000000000000000000000008152600401610364906112e2565b60405180910390fd5b600073ffffffffffffffffffffffffffffffffffffffff166009600083815260200190815260200160002060009054906101000a900473ffffffffffffffffffffffffffffffffffffffff1673ffffffffffffffffffffffffffffffffffffffff161461040f576040517f08c379a00000000000000000000000000000000000000000000000000000000081526004016104069061134e565b60405180910390fd5b600b6005541115610455576040517f08c379a000000000000000000000000000000000000000000000000000000000815260040161044c906113ba565b60405180910390fd5b336009600083815260200190815260200160002060006101000a81548173ffffffffffffffffffffffffffffffffffffffff021916908373ffffffffffffffffffffffffffffffffffffffff16021790555060405180604001604052803373ffffffffffffffffffffffffffffffffffffffff168152602001828152506008600083815260200190815260200160002060008201518160000160006101000a81548173ffffffffffffffffffffffffffffffffffffffff021916908373ffffffffffffffffffffffffffffffffffffffff16021790555060208201518160010155905050803373ffffffffffffffffffffffffffffffffffffffff167f5948ba375b856ac94a9cea3a36e53c80180b738a063e13ff667c7d156236b03960405160405180910390a36005600081548092919061059090611409565b9190505550600b600554106105bc576105a7610bcf565b5060c8426105b59190611451565b6006819055505b600160028190555050565b60086020528060005260406000206000915090508060000160009054906101000a900473ffffffffffffffffffffffffffffffffffffffff16908060010154905082565b600280540361064f576040517f08c379a000000000000000000000000000000000000000000000000000000000815260040161064690611276565b60405180910390fd5b6002808190555061065e610a9b565b73ffffffffffffffffffffffffffffffffffffffff163373ffffffffffffffffffffffffffffffffffffffff16146106cb576040517f08c379a00000000000000000000000000000000000000000000000000000000081526004016106c2906114f3565b60405180910390fd5b600654421161070f576040517f08c379a00000000000000000000000000000000000000000000000000000000081526004016107069061155f565b60405180910390fd5b600b600554101561071f57600080fd5b606360075410610764576040517f08c379a000000000000000000000000000000000000000000000000000000000815260040161075b906115f1565b60405180910390fd5b600a60009054906101000a900473ffffffffffffffffffffffffffffffffffffffff1673ffffffffffffffffffffffffffffffffffffffff166323b872dd6107aa61097c565b6107b2610a9b565b60016040518463ffffffff1660e01b81526004016107d2939291906116ab565b6020604051808303816000875af11580156107f1573d6000803e3d6000fd5b505050506040513d601f19601f82011682018060405250810190610815919061171a565b5061081e610cc2565b6001600281905550565b610830610d6e565b73ffffffffffffffffffffffffffffffffffffffff1661084e61097c565b73ffffffffffffffffffffffffffffffffffffffff16146108a4576040517f08c379a000000000000000000000000000000000000000000000000000000000815260040161089b90611793565b60405180910390fd5b80600a60006101000a81548173ffffffffffffffffffffffffffffffffffffffff021916908373ffffffffffffffffffffffffffffffffffffffff16021790555050565b60075481565b60065481565b6108fc610d6e565b73ffffffffffffffffffffffffffffffffffffffff1661091a61097c565b73ffffffffffffffffffffffffffffffffffffffff1614610970576040517f08c379a000000000000000000000000000000000000000000000000000000000815260040161096790611793565b60405180910390fd5b61097a6000610d76565b565b6000600160009054906101000a900473ffffffffffffffffffffffffffffffffffffffff16905090565b7f000000000000000000000000000000000000000000000000000000000000000073ffffffffffffffffffffffffffffffffffffffff163373ffffffffffffffffffffffffffffffffffffffff1614610a34576040517f08c379a0000000000000000000000000000000000000000000000000000000008152600401610a2b906117ff565b60405180910390fd5b610a3e8282610e3c565b5050565b600a60009054906101000a900473ffffffffffffffffffffffffffffffffffffffff1681565b60096020528060005260406000206000915054906101000a900473ffffffffffffffffffffffffffffffffffffffff1681565b600060096000600754815260200190815260200160002060009054906101000a900473ffffffffffffffffffffffffffffffffffffffff16905090565b610ae0610d6e565b73ffffffffffffffffffffffffffffffffffffffff16610afe61097c565b73ffffffffffffffffffffffffffffffffffffffff1614610b54576040517f08c379a0000000000000000000000000000000000000000000000000000000008152600401610b4b90611793565b60405180910390fd5b600073ffffffffffffffffffffffffffffffffffffffff168173ffffffffffffffffffffffffffffffffffffffff1603610bc3576040517f08c379a0000000000000000000000000000000000000000000000000000000008152600401610bba90611891565b60405180910390fd5b610bcc81610d76565b50565b60006004547f000000000000000000000000000000000000000000000000000000000000000073ffffffffffffffffffffffffffffffffffffffff166370a08231306040518263ffffffff1660e01b8152600401610c2d9190611188565b602060405180830381865afa158015610c4a573d6000803e3d6000fd5b505050506040513d601f19601f82011682018060405250810190610c6e91906118c6565b1015610caf576040517f08c379a0000000000000000000000000000000000000000000000000000000008152600401610ca690611965565b60405180910390fd5b610cbd600354600454610e53565b905090565b60005b600a8111610d5b576009600082815260200190815260200160002060006101000a81549073ffffffffffffffffffffffffffffffffffffffff021916905560086000828152602001908152602001600020600080820160006101000a81549073ffffffffffffffffffffffffffffffffffffffff0219169055600182016000905550508080610d5390611409565b915050610cc5565b5060636007819055506000600581905550565b600033905090565b6000600160009054906101000a900473ffffffffffffffffffffffffffffffffffffffff16905081600160006101000a81548173ffffffffffffffffffffffffffffffffffffffff021916908373ffffffffffffffffffffffffffffffffffffffff1602179055508173ffffffffffffffffffffffffffffffffffffffff168173ffffffffffffffffffffffffffffffffffffffff167f8be0079c531659141344cd1fd0a4f28419497f9722a3daafe3b4186f6b6457e060405160405180910390a35050565b600a81610e4991906119b4565b6007819055505050565b60007f000000000000000000000000000000000000000000000000000000000000000073ffffffffffffffffffffffffffffffffffffffff16634000aea07f000000000000000000000000000000000000000000000000000000000000000084866000604051602001610ec79291906119f4565b6040516020818303038152906040526040518463ffffffff1660e01b8152600401610ef493929190611ab6565b6020604051808303816000875af1158015610f13573d6000803e3d6000fd5b505050506040513d601f19601f82011682018060405250810190610f37919061171a565b506000610f598460003060008089815260200190815260200160002054610fa3565b9050600160008086815260200190815260200160002054610f7a9190611451565b60008086815260200190815260200160002081905550610f9a8482610fdf565b91505092915050565b600084848484604051602001610fbc9493929190611af4565b6040516020818303038152906040528051906020012060001c9050949350505050565b60008282604051602001610ff4929190611b7b565b60405160208183030381529060405280519060200120905092915050565b600080fd5b6000819050919050565b61102a81611017565b811461103557600080fd5b50565b60008135905061104781611021565b92915050565b60006020828403121561106357611062611012565b5b600061107184828501611038565b91505092915050565b600073ffffffffffffffffffffffffffffffffffffffff82169050919050565b60006110a58261107a565b9050919050565b6110b58161109a565b82525050565b6110c481611017565b82525050565b60006040820190506110df60008301856110ac565b6110ec60208301846110bb565b9392505050565b60006110fe8261107a565b9050919050565b61110e816110f3565b811461111957600080fd5b50565b60008135905061112b81611105565b92915050565b60006020828403121561114757611146611012565b5b60006111558482850161111c565b91505092915050565b600060208201905061117360008301846110bb565b92915050565b611182816110f3565b82525050565b600060208201905061119d6000830184611179565b92915050565b6000819050919050565b6111b6816111a3565b81146111c157600080fd5b50565b6000813590506111d3816111ad565b92915050565b600080604083850312156111f0576111ef611012565b5b60006111fe858286016111c4565b925050602061120f85828601611038565b9150509250929050565b600082825260208201905092915050565b7f5265656e7472616e637947756172643a207265656e7472616e742063616c6c00600082015250565b6000611260601f83611219565b915061126b8261122a565b602082019050919050565b6000602082019050818103600083015261128f81611253565b9050919050565b7f3020746f203130204d6178204e756d6265720000000000000000000000000000600082015250565b60006112cc601283611219565b91506112d782611296565b602082019050919050565b600060208201905081810360008301526112fb816112bf565b9050919050565b7f416c72656164792053656c6c6564000000000000000000000000000000000000600082015250565b6000611338600e83611219565b915061134382611302565b602082019050919050565b600060208201905081810360008301526113678161132b565b9050919050565b7f436f6e7461646f72204641494c00000000000000000000000000000000000000600082015250565b60006113a4600d83611219565b91506113af8261136e565b602082019050919050565b600060208201905081810360008301526113d381611397565b9050919050565b7f4e487b7100000000000000000000000000000000000000000000000000000000600052601160045260246000fd5b600061141482611017565b91507fffffffffffffffffffffffffffffffffffffffffffffffffffffffffffffffff8203611446576114456113da565b5b600182019050919050565b600061145c82611017565b915061146783611017565b9250827fffffffffffffffffffffffffffffffffffffffffffffffffffffffffffffffff0382111561149c5761149b6113da565b5b828201905092915050565b7f4e6f742057696e6e657220210000000000000000000000000000000000000000600082015250565b60006114dd600c83611219565b91506114e8826114a7565b602082019050919050565b6000602082019050818103600083015261150c816114d0565b9050919050565b7f4e65656420323030207365636f6e6473206f662044656c617921000000000000600082015250565b6000611549601a83611219565b915061155482611513565b602082019050919050565b600060208201905081810360008301526115788161153c565b9050919050565b7f4e656564205761697420436861696e6c696e6b20476976652052616e646f772060008201527f4e756d6265720000000000000000000000000000000000000000000000000000602082015250565b60006115db602683611219565b91506115e68261157f565b604082019050919050565b6000602082019050818103600083015261160a816115ce565b9050919050565b6000819050919050565b600061163661163161162c8461107a565b611611565b61107a565b9050919050565b60006116488261161b565b9050919050565b600061165a8261163d565b9050919050565b61166a8161164f565b82525050565b6000819050919050565b600061169561169061168b84611670565b611611565b611017565b9050919050565b6116a58161167a565b82525050565b60006060820190506116c06000830186611179565b6116cd6020830185611661565b6116da604083018461169c565b949350505050565b60008115159050919050565b6116f7816116e2565b811461170257600080fd5b50565b600081519050611714816116ee565b92915050565b6000602082840312156117305761172f611012565b5b600061173e84828501611705565b91505092915050565b7f4f776e61626c653a2063616c6c6572206973206e6f7420746865206f776e6572600082015250565b600061177d602083611219565b915061178882611747565b602082019050919050565b600060208201905081810360008301526117ac81611770565b9050919050565b7f4f6e6c7920565246436f6f7264696e61746f722063616e2066756c66696c6c00600082015250565b60006117e9601f83611219565b91506117f4826117b3565b602082019050919050565b60006020820190508181036000830152611818816117dc565b9050919050565b7f4f776e61626c653a206e6577206f776e657220697320746865207a65726f206160008201527f6464726573730000000000000000000000000000000000000000000000000000602082015250565b600061187b602683611219565b91506118868261181f565b604082019050919050565b600060208201905081810360008301526118aa8161186e565b9050919050565b6000815190506118c081611021565b92915050565b6000602082840312156118dc576118db611012565b5b60006118ea848285016118b1565b91505092915050565b7f4e6f7420656e6f756768204c494e4b202d2066696c6c20636f6e74726163742060008201527f7769746820666175636574000000000000000000000000000000000000000000602082015250565b600061194f602b83611219565b915061195a826118f3565b604082019050919050565b6000602082019050818103600083015261197e81611942565b9050919050565b7f4e487b7100000000000000000000000000000000000000000000000000000000600052601260045260246000fd5b60006119bf82611017565b91506119ca83611017565b9250826119da576119d9611985565b5b828206905092915050565b6119ee816111a3565b82525050565b6000604082019050611a0960008301856119e5565b611a1660208301846110bb565b9392505050565b600081519050919050565b600082825260208201905092915050565b60005b83811015611a57578082015181840152602081019050611a3c565b83811115611a66576000848401525b50505050565b6000601f19601f8301169050919050565b6000611a8882611a1d565b611a928185611a28565b9350611aa2818560208601611a39565b611aab81611a6c565b840191505092915050565b6000606082019050611acb6000830186611179565b611ad860208301856110bb565b8181036040830152611aea8184611a7d565b9050949350505050565b6000608082019050611b0960008301876119e5565b611b1660208301866110bb565b611b236040830185611179565b611b3060608301846110bb565b95945050505050565b6000819050919050565b611b54611b4f826111a3565b611b39565b82525050565b6000819050919050565b611b75611b7082611017565b611b5a565b82525050565b6000611b878285611b43565b602082019150611b978284611b64565b602082019150819050939250505056fea264697066735822122013788ef9727b1d6f29e865db66b3a9182e81f1280f98492df56c1efce6e83d5b64736f6c634300080d0033",
  "immutableReferences": {
    "404": [
      {
        "length": 32,
        "start": 3030
      },
      {
        "length": 32,
        "start": 3671
      }
    ],
    "406": [
      {
        "length": 32,
        "start": 2472
      },
      {
        "length": 32,
        "start": 3731
      }
    ]
  },
  "source": "// SPDX-License-Identifier: MIT\r\n\r\npragma solidity ^0.8.7;\r\n\r\n\r\n\r\nimport \"../node_modules/@chainlink/contracts/src/v0.8/VRFConsumerBase.sol\";\r\n\r\nimport \"../node_modules/@openzeppelin/contracts/token/ERC20/ERC20.sol\";\r\nimport \"../node_modules/@openzeppelin/contracts/token/ERC20/extensions/ERC20Burnable.sol\";\r\nimport \"../node_modules/@openzeppelin/contracts/security/Pausable.sol\";\r\nimport \"../node_modules/@openzeppelin/contracts/security/ReentrancyGuard.sol\";\r\nimport \"../node_modules/@openzeppelin/contracts/access/Ownable.sol\";\r\n\r\n\r\n\r\n\r\ncontract Tickets is VRFConsumerBase,Ownable,ReentrancyGuard {\r\n    \r\n    bytes32 internal keyHash;\r\n    uint256 internal fee;\r\n    uint256 internal Contador;\r\n    uint256 public Delay;\r\n    \r\n    uint256 public randomResult=99;\r\n\r\n    struct LotteryItem{\r\n        address payable ownerticket;\r\n        uint256 ticketId;\r\n    }\r\n\r\n    event LotteryItemCreated(\r\n        address indexed ownerticket, \r\n        uint256 indexed ticketId\r\n    );\r\n\r\n    mapping(uint256 => LotteryItem) public idLotteryItem;\r\n    mapping(uint256 => address) public MAP;\r\n    address public tokenERC20;\r\n\r\n    constructor() \r\n        VRFConsumerBase(\r\n            0xdD3782915140c8f3b190B5D67eAc6dc5760C46E9, // VRF Coordinator\r\n            0xa36085F69e2889c224210F603D836748e7dC0088    // LINK Token\r\n        )\r\n    {\r\n        keyHash = 0x6c3699283bda56ad74f6b855546325b68d482e983852a7a82979cc4807b641f4;\r\n        fee = 0.1 * 10 ** 18; // 0.1 LINK (Varies by network)\r\n    }\r\n    \r\n    function SetTokenAddress(address _token) external onlyOwner{\r\n        tokenERC20 = _token;\r\n    }\r\n\r\n    function getRandomNumber() internal returns (bytes32 requestId) {\r\n        require(LINK.balanceOf(address(this)) >= fee, \"Not enough LINK - fill contract with faucet\");\r\n        return requestRandomness(keyHash, fee);\r\n    }\r\n\r\n    function fulfillRandomness(bytes32 requestId, uint256 randomness) internal override {\r\n        randomResult = uint256(randomness % 10);\r\n    }\r\n\r\n    function reset()internal{\r\n        for(uint256 i = 0; i <= 10; i++ ){\r\n            delete MAP[i];\r\n            delete idLotteryItem[i];\r\n        }\r\n        randomResult= 99;\r\n        Contador=0;\r\n    }\r\n\r\n    function BuyTicketNumber(uint256 ticketId)external nonReentrant{\r\n        require(ticketId <= 10, \"0 to 10 Max Number\");\r\n        require(MAP[ticketId] == address(0), \"Already Selled\");\r\n        require(Contador <= 11,\"Contador FAIL\");\r\n        \r\n        MAP[ticketId]= msg.sender;\r\n\r\n        idLotteryItem[ticketId] = LotteryItem(\r\n            payable(msg.sender),\r\n            ticketId\r\n        );\r\n        \r\n        emit LotteryItemCreated(\r\n            payable(msg.sender),\r\n            ticketId\r\n        );\r\n        Contador++;\r\n\r\n        if(Contador >= 11){\r\n            getRandomNumber();\r\n            Delay = block.timestamp + 200;\r\n        }\r\n\r\n    }\r\n\r\n    function Claim()external payable nonReentrant{\r\n        require(msg.sender == winner(), \"Not Winner !\");\r\n        require(block.timestamp > Delay, \"Need 200 seconds of Delay!\");\r\n        require(Contador >= 11);\r\n        require(randomResult < 99, \"Need Wait Chainlink Give Randow Number\");\r\n        \r\n        IERC20(tokenERC20).transferFrom(owner(),payable(winner()),1);\r\n        reset();\r\n    }\r\n\r\n    function winner()public view returns(address){\r\n        return MAP[randomResult];\r\n    }\r\n    \r\n}\r\n\r\ncontract MyToken is ERC20 {\r\n\r\n    address public Address;\r\n\r\n    constructor(address start) ERC20(\"Reward\", \"RDD\") {\r\n        _mint(msg.sender, 1000);\r\n        Address = start;\r\n        approve(Address, totalSupply());\r\n    }\r\n\r\n}\r\n",
  "sourcePath": "C:\\Users\\Wenyx\\ReactLottery\\my-app\\contracts\\Tickets.sol",
  "compiler": {
    "name": "solc",
    "version": "0.8.13+commit.abaa5c0e.Emscripten.clang"
  },
  "schemaVersion": "3.4.6",
  "updatedAt": "2022-06-21T22:34:16.775Z",
  "networkType": "ethereum",
  "devdoc": {
    "kind": "dev",
    "methods": {
      "owner()": {
        "details": "Returns the address of the current owner."
      },
      "renounceOwnership()": {
        "details": "Leaves the contract without owner. It will not be possible to call `onlyOwner` functions anymore. Can only be called by the current owner. NOTE: Renouncing ownership will leave the contract without an owner, thereby removing any functionality that is only available to the owner."
      },
      "transferOwnership(address)": {
        "details": "Transfers ownership of the contract to a new account (`newOwner`). Can only be called by the current owner."
      }
    },
    "version": 1
  },
  "userdoc": {
    "kind": "user",
    "methods": {},
    "version": 1
  }
}